{
  "_format": "hh-sol-artifact-1",
  "contractName": "Auction",
  "sourceName": "contracts/Auction.sol",
  "abi": [
    {
      "anonymous": false,
      "inputs": [
        {
          "indexed": false,
          "internalType": "uint256",
          "name": "auctionId",
          "type": "uint256"
        },
        {
          "indexed": false,
          "internalType": "address",
          "name": "seller",
          "type": "address"
        },
        {
          "indexed": false,
          "internalType": "string",
          "name": "description",
          "type": "string"
        }
      ],
      "name": "AuctionCreated",
      "type": "event"
    },
    {
      "anonymous": false,
      "inputs": [
        {
          "indexed": false,
          "internalType": "uint256",
          "name": "auctionId",
          "type": "uint256"
        },
        {
          "indexed": false,
          "internalType": "address",
          "name": "winner",
          "type": "address"
        },
        {
          "indexed": false,
          "internalType": "uint256",
          "name": "amount",
          "type": "uint256"
        }
      ],
      "name": "AuctionEnded",
      "type": "event"
    },
    {
      "anonymous": false,
      "inputs": [
        {
          "indexed": false,
          "internalType": "uint256",
          "name": "auctionId",
          "type": "uint256"
        },
        {
          "indexed": false,
          "internalType": "address",
          "name": "bidder",
          "type": "address"
        },
        {
          "indexed": false,
          "internalType": "uint256",
          "name": "amount",
          "type": "uint256"
        }
      ],
      "name": "BidPlaced",
      "type": "event"
    },
    {
      "anonymous": false,
      "inputs": [
        {
          "indexed": false,
          "internalType": "address",
          "name": "bidder",
          "type": "address"
        },
        {
          "indexed": false,
          "internalType": "uint256",
          "name": "amount",
          "type": "uint256"
        }
      ],
      "name": "RefundProcessed",
      "type": "event"
    },
    {
      "anonymous": false,
      "inputs": [
        {
          "indexed": false,
          "internalType": "address",
          "name": "user",
          "type": "address"
        }
      ],
      "name": "UserRegistered",
      "type": "event"
    },
    {
      "inputs": [],
      "name": "auctionCounter",
      "outputs": [
        {
          "internalType": "uint256",
          "name": "",
          "type": "uint256"
        }
      ],
      "stateMutability": "view",
      "type": "function"
    },
    {
      "inputs": [
        {
          "internalType": "uint256",
          "name": "",
          "type": "uint256"
        }
      ],
      "name": "auctions",
      "outputs": [
        {
          "internalType": "uint256",
          "name": "id",
          "type": "uint256"
        },
        {
          "internalType": "address",
          "name": "seller",
          "type": "address"
        },
        {
          "internalType": "string",
          "name": "description",
          "type": "string"
        },
        {
          "internalType": "uint256",
          "name": "startingPrice",
          "type": "uint256"
        },
        {
          "internalType": "uint256",
          "name": "reservePrice",
          "type": "uint256"
        },
        {
          "internalType": "uint256",
          "name": "startTime",
          "type": "uint256"
        },
        {
          "internalType": "uint256",
          "name": "endTime",
          "type": "uint256"
        },
        {
          "internalType": "uint256",
          "name": "highestBid",
          "type": "uint256"
        },
        {
          "internalType": "address",
          "name": "highestBidder",
          "type": "address"
        },
        {
          "internalType": "bool",
          "name": "active",
          "type": "bool"
        },
        {
          "internalType": "bool",
          "name": "ended",
          "type": "bool"
        }
      ],
      "stateMutability": "view",
      "type": "function"
    },
    {
      "inputs": [
        {
          "internalType": "uint256",
          "name": "",
          "type": "uint256"
        },
        {
          "internalType": "address",
          "name": "",
          "type": "address"
        }
      ],
      "name": "bids",
      "outputs": [
        {
          "internalType": "uint256",
          "name": "",
          "type": "uint256"
        }
      ],
      "stateMutability": "view",
      "type": "function"
    },
    {
      "inputs": [
        {
          "internalType": "string",
          "name": "_description",
          "type": "string"
        },
        {
          "internalType": "uint256",
          "name": "_startingPrice",
          "type": "uint256"
        },
        {
          "internalType": "uint256",
          "name": "_reservePrice",
          "type": "uint256"
        },
        {
          "internalType": "uint256",
          "name": "_duration",
          "type": "uint256"
        }
      ],
      "name": "createAuction",
      "outputs": [],
      "stateMutability": "nonpayable",
      "type": "function"
    },
    {
      "inputs": [
        {
          "internalType": "uint256",
          "name": "_auctionId",
          "type": "uint256"
        }
      ],
      "name": "endAuction",
      "outputs": [],
      "stateMutability": "nonpayable",
      "type": "function"
    },
    {
      "inputs": [
        {
          "internalType": "uint256",
          "name": "_auctionId",
          "type": "uint256"
        }
      ],
      "name": "getAuction",
      "outputs": [
        {
          "internalType": "address",
          "name": "seller",
          "type": "address"
        },
        {
          "internalType": "string",
          "name": "description",
          "type": "string"
        },
        {
          "internalType": "uint256",
          "name": "startingPrice",
          "type": "uint256"
        },
        {
          "internalType": "uint256",
          "name": "reservePrice",
          "type": "uint256"
        },
        {
          "internalType": "uint256",
          "name": "startTime",
          "type": "uint256"
        },
        {
          "internalType": "uint256",
          "name": "endTime",
          "type": "uint256"
        },
        {
          "internalType": "uint256",
          "name": "highestBid",
          "type": "uint256"
        },
        {
          "internalType": "address",
          "name": "highestBidder",
          "type": "address"
        },
        {
          "internalType": "bool",
          "name": "active",
          "type": "bool"
        },
        {
          "internalType": "bool",
          "name": "ended",
          "type": "bool"
        }
      ],
      "stateMutability": "view",
      "type": "function"
    },
    {
      "inputs": [
        {
          "internalType": "uint256",
          "name": "_auctionId",
          "type": "uint256"
        },
        {
          "internalType": "address",
          "name": "_bidder",
          "type": "address"
        }
      ],
      "name": "getBidAmount",
      "outputs": [
        {
          "internalType": "uint256",
          "name": "",
          "type": "uint256"
        }
      ],
      "stateMutability": "view",
      "type": "function"
    },
    {
      "inputs": [
        {
          "internalType": "uint256",
          "name": "_auctionId",
          "type": "uint256"
        }
      ],
      "name": "placeBid",
      "outputs": [],
      "stateMutability": "payable",
      "type": "function"
    },
    {
      "inputs": [],
      "name": "registerUser",
      "outputs": [],
      "stateMutability": "nonpayable",
      "type": "function"
    },
    {
      "inputs": [
        {
          "internalType": "address",
          "name": "",
          "type": "address"
        }
      ],
      "name": "registeredUsers",
      "outputs": [
        {
          "internalType": "bool",
          "name": "",
          "type": "bool"
        }
      ],
      "stateMutability": "view",
      "type": "function"
    }
  ],
  "bytecode": "0x608060405234801561001057600080fd5b5061231d806100206000396000f3fe6080604052600436106100915760003560e01c806378bd79351161005957806378bd7935146101975780639979ef45146101dd578063a7e76644146101f9578063b47089b414610224578063b9a2de3a1461026157610091565b80630e50cee5146100965780633f1ffcec146100d35780634d3820eb146101105780634e46373414610127578063571a26a014610150575b600080fd5b3480156100a257600080fd5b506100bd60048036038101906100b891906113bb565b61028a565b6040516100ca9190611403565b60405180910390f35b3480156100df57600080fd5b506100fa60048036038101906100f59190611454565b6102aa565b60405161010791906114a3565b60405180910390f35b34801561011c57600080fd5b506101256102cf565b005b34801561013357600080fd5b5061014e60048036038101906101499190611604565b6103ec565b005b34801561015c57600080fd5b5061017760048036038101906101729190611687565b610761565b60405161018e9b9a99989796959493929190611742565b60405180910390f35b3480156101a357600080fd5b506101be60048036038101906101b99190611687565b61089d565b6040516101d49a999897969594939291906117f4565b60405180910390f35b6101f760048036038101906101f29190611687565b610a42565b005b34801561020557600080fd5b5061020e610f05565b60405161021b91906114a3565b60405180910390f35b34801561023057600080fd5b5061024b60048036038101906102469190611454565b610f0b565b60405161025891906114a3565b60405180910390f35b34801561026d57600080fd5b5061028860048036038101906102839190611687565b610fac565b005b60016020528060005260406000206000915054906101000a900460ff1681565b6002602052816000526040600020602052806000526040600020600091509150505481565b600160003373ffffffffffffffffffffffffffffffffffffffff1673ffffffffffffffffffffffffffffffffffffffff16815260200190815260200160002060009054906101000a900460ff161561035c576040517f08c379a0000000000000000000000000000000000000000000000000000000008152600401610353906118e3565b60405180910390fd5b60018060003373ffffffffffffffffffffffffffffffffffffffff1673ffffffffffffffffffffffffffffffffffffffff16815260200190815260200160002060006101000a81548160ff0219169083151502179055507f54db7a5cb4735e1aac1f53db512d3390390bb6637bd30ad4bf9fc98667d9b9b9336040516103e29190611903565b60405180910390a1565b600160003373ffffffffffffffffffffffffffffffffffffffff1673ffffffffffffffffffffffffffffffffffffffff16815260200190815260200160002060009054906101000a900460ff16610478576040517f08c379a000000000000000000000000000000000000000000000000000000000815260040161046f9061196a565b60405180910390fd5b600081116104bb576040517f08c379a00000000000000000000000000000000000000000000000000000000081526004016104b2906119d6565b60405180910390fd5b600083116104fe576040517f08c379a00000000000000000000000000000000000000000000000000000000081526004016104f590611a42565b60405180910390fd5b82821015610541576040517f08c379a000000000000000000000000000000000000000000000000000000000815260040161053890611ad4565b60405180910390fd5b60006003600081548092919061055690611b23565b9190505590506040518061016001604052808281526020013373ffffffffffffffffffffffffffffffffffffffff16815260200186815260200185815260200184815260200142815260200183426105ae9190611b6b565b815260200160008152602001600073ffffffffffffffffffffffffffffffffffffffff168152602001600115158152602001600015158152506000808381526020019081526020016000206000820151816000015560208201518160010160006101000a81548173ffffffffffffffffffffffffffffffffffffffff021916908373ffffffffffffffffffffffffffffffffffffffff160217905550604082015181600201908161065f9190611dab565b50606082015181600301556080820151816004015560a0820151816005015560c0820151816006015560e082015181600701556101008201518160080160006101000a81548173ffffffffffffffffffffffffffffffffffffffff021916908373ffffffffffffffffffffffffffffffffffffffff1602179055506101208201518160080160146101000a81548160ff0219169083151502179055506101408201518160080160156101000a81548160ff0219169083151502179055509050507fb928fabb4287b33fb3d59644b08cfd2e726532740f8ba9d42f17ece23fbff37f81338760405161075293929190611e7d565b60405180910390a15050505050565b60006020528060005260406000206000915090508060000154908060010160009054906101000a900473ffffffffffffffffffffffffffffffffffffffff16908060020180546107b090611bce565b80601f01602080910402602001604051908101604052809291908181526020018280546107dc90611bce565b80156108295780601f106107fe57610100808354040283529160200191610829565b820191906000526020600020905b81548152906001019060200180831161080c57829003601f168201915b5050505050908060030154908060040154908060050154908060060154908060070154908060080160009054906101000a900473ffffffffffffffffffffffffffffffffffffffff16908060080160149054906101000a900460ff16908060080160159054906101000a900460ff1690508b565b600060606000806000806000806000808a60035481106108f2576040517f08c379a00000000000000000000000000000000000000000000000000000000081526004016108e990611f07565b60405180910390fd5b60008060008e815260200190815260200160002090508060010160009054906101000a900473ffffffffffffffffffffffffffffffffffffffff1681600201826003015483600401548460050154856006015486600701548760080160009054906101000a900473ffffffffffffffffffffffffffffffffffffffff168860080160149054906101000a900460ff168960080160159054906101000a900460ff1688805461099f90611bce565b80601f01602080910402602001604051908101604052809291908181526020018280546109cb90611bce565b8015610a185780601f106109ed57610100808354040283529160200191610a18565b820191906000526020600020905b8154815290600101906020018083116109fb57829003601f168201915b505050505098509b509b509b509b509b509b509b509b509b509b5050509193959799509193959799565b600160003373ffffffffffffffffffffffffffffffffffffffff1673ffffffffffffffffffffffffffffffffffffffff16815260200190815260200160002060009054906101000a900460ff16610ace576040517f08c379a0000000000000000000000000000000000000000000000000000000008152600401610ac59061196a565b60405180910390fd5b806003548110610b13576040517f08c379a0000000000000000000000000000000000000000000000000000000008152600401610b0a90611f07565b60405180910390fd5b8160008082815260200190815260200160002060080160149054906101000a900460ff16610b76576040517f08c379a0000000000000000000000000000000000000000000000000000000008152600401610b6d90611f73565b60405180910390fd5b60008082815260200190815260200160002060050154421015610bce576040517f08c379a0000000000000000000000000000000000000000000000000000000008152600401610bc590611fdf565b60405180910390fd5b60008082815260200190815260200160002060060154421115610c26576040517f08c379a0000000000000000000000000000000000000000000000000000000008152600401610c1d9061204b565b60405180910390fd5b600080600085815260200190815260200160002090508060010160009054906101000a900473ffffffffffffffffffffffffffffffffffffffff1673ffffffffffffffffffffffffffffffffffffffff163373ffffffffffffffffffffffffffffffffffffffff1603610cce576040517f08c379a0000000000000000000000000000000000000000000000000000000008152600401610cc5906120b7565b60405180910390fd5b80600701543411610d14576040517f08c379a0000000000000000000000000000000000000000000000000000000008152600401610d0b90612123565b60405180910390fd5b8060030154341015610d5b576040517f08c379a0000000000000000000000000000000000000000000000000000000008152600401610d529061218f565b60405180910390fd5b600073ffffffffffffffffffffffffffffffffffffffff168160080160009054906101000a900473ffffffffffffffffffffffffffffffffffffffff1673ffffffffffffffffffffffffffffffffffffffff1614610e23578060080160009054906101000a900473ffffffffffffffffffffffffffffffffffffffff1673ffffffffffffffffffffffffffffffffffffffff166108fc82600701549081150290604051600060405180830381858888f19350505050158015610e21573d6000803e3d6000fd5b505b348160070181905550338160080160006101000a81548173ffffffffffffffffffffffffffffffffffffffff021916908373ffffffffffffffffffffffffffffffffffffffff160217905550346002600086815260200190815260200160002060003373ffffffffffffffffffffffffffffffffffffffff1673ffffffffffffffffffffffffffffffffffffffff168152602001908152602001600020819055507f0e54eff26401bf69b81b26f60bd85ef47f5d85275c1d268d84f68d6897431c47843334604051610ef7939291906121af565b60405180910390a150505050565b60035481565b6000826003548110610f52576040517f08c379a0000000000000000000000000000000000000000000000000000000008152600401610f4990611f07565b60405180910390fd5b6002600085815260200190815260200160002060008473ffffffffffffffffffffffffffffffffffffffff1673ffffffffffffffffffffffffffffffffffffffff1681526020019081526020016000205491505092915050565b806003548110610ff1576040517f08c379a0000000000000000000000000000000000000000000000000000000008152600401610fe890611f07565b60405180910390fd5b600080600084815260200190815260200160002090508060080160159054906101000a900460ff1615611059576040517f08c379a000000000000000000000000000000000000000000000000000000000815260040161105090612232565b60405180910390fd5b8060060154421015806110bb57508060010160009054906101000a900473ffffffffffffffffffffffffffffffffffffffff1673ffffffffffffffffffffffffffffffffffffffff163373ffffffffffffffffffffffffffffffffffffffff16145b6110fa576040517f08c379a00000000000000000000000000000000000000000000000000000000081526004016110f19061229e565b60405180910390fd5b60018160080160156101000a81548160ff02191690831515021790555060008160080160146101000a81548160ff021916908315150217905550806004015481600701541061121a578060010160009054906101000a900473ffffffffffffffffffffffffffffffffffffffff1673ffffffffffffffffffffffffffffffffffffffff166108fc82600701549081150290604051600060405180830381858888f193505050501580156111b1573d6000803e3d6000fd5b507fd2aa34a4fdbbc6dff6a3e56f46e0f3ae2a31d7785ff3487aa5c95c642acea501838260080160009054906101000a900473ffffffffffffffffffffffffffffffffffffffff16836007015460405161120d939291906121af565b60405180910390a1611344565b600073ffffffffffffffffffffffffffffffffffffffff168160080160009054906101000a900473ffffffffffffffffffffffffffffffffffffffff1673ffffffffffffffffffffffffffffffffffffffff1614611343578060080160009054906101000a900473ffffffffffffffffffffffffffffffffffffffff1673ffffffffffffffffffffffffffffffffffffffff166108fc82600701549081150290604051600060405180830381858888f193505050501580156112e0573d6000803e3d6000fd5b507f3367befd2b2f39615cd79917c2153263c4af1d3945ec003e5d5bfc13a8d858338160080160009054906101000a900473ffffffffffffffffffffffffffffffffffffffff16826007015460405161133a9291906122be565b60405180910390a15b5b505050565b6000604051905090565b600080fd5b600080fd5b600073ffffffffffffffffffffffffffffffffffffffff82169050919050565b60006113888261135d565b9050919050565b6113988161137d565b81146113a357600080fd5b50565b6000813590506113b58161138f565b92915050565b6000602082840312156113d1576113d0611353565b5b60006113df848285016113a6565b91505092915050565b60008115159050919050565b6113fd816113e8565b82525050565b600060208201905061141860008301846113f4565b92915050565b6000819050919050565b6114318161141e565b811461143c57600080fd5b50565b60008135905061144e81611428565b92915050565b6000806040838503121561146b5761146a611353565b5b60006114798582860161143f565b925050602061148a858286016113a6565b9150509250929050565b61149d8161141e565b82525050565b60006020820190506114b86000830184611494565b92915050565b600080fd5b600080fd5b6000601f19601f8301169050919050565b7f4e487b7100000000000000000000000000000000000000000000000000000000600052604160045260246000fd5b611511826114c8565b810181811067ffffffffffffffff821117156115305761152f6114d9565b5b80604052505050565b6000611543611349565b905061154f8282611508565b919050565b600067ffffffffffffffff82111561156f5761156e6114d9565b5b611578826114c8565b9050602081019050919050565b82818337600083830152505050565b60006115a76115a284611554565b611539565b9050828152602081018484840111156115c3576115c26114c3565b5b6115ce848285611585565b509392505050565b600082601f8301126115eb576115ea6114be565b5b81356115fb848260208601611594565b91505092915050565b6000806000806080858703121561161e5761161d611353565b5b600085013567ffffffffffffffff81111561163c5761163b611358565b5b611648878288016115d6565b94505060206116598782880161143f565b935050604061166a8782880161143f565b925050606061167b8782880161143f565b91505092959194509250565b60006020828403121561169d5761169c611353565b5b60006116ab8482850161143f565b91505092915050565b6116bd8161137d565b82525050565b600081519050919050565b600082825260208201905092915050565b60005b838110156116fd5780820151818401526020810190506116e2565b60008484015250505050565b6000611714826116c3565b61171e81856116ce565b935061172e8185602086016116df565b611737816114c8565b840191505092915050565b600061016082019050611758600083018e611494565b611765602083018d6116b4565b8181036040830152611777818c611709565b9050611786606083018b611494565b611793608083018a611494565b6117a060a0830189611494565b6117ad60c0830188611494565b6117ba60e0830187611494565b6117c86101008301866116b4565b6117d66101208301856113f4565b6117e46101408301846113f4565b9c9b505050505050505050505050565b60006101408201905061180a600083018d6116b4565b818103602083015261181c818c611709565b905061182b604083018b611494565b611838606083018a611494565b6118456080830189611494565b61185260a0830188611494565b61185f60c0830187611494565b61186c60e08301866116b4565b61187a6101008301856113f4565b6118886101208301846113f4565b9b9a5050505050505050505050565b7f5573657220616c72656164792072656769737465726564000000000000000000600082015250565b60006118cd6017836116ce565b91506118d882611897565b602082019050919050565b600060208201905081810360008301526118fc816118c0565b9050919050565b600060208201905061191860008301846116b4565b92915050565b7f55736572206e6f74207265676973746572656400000000000000000000000000600082015250565b60006119546013836116ce565b915061195f8261191e565b602082019050919050565b6000602082019050818103600083015261198381611947565b9050919050565b7f4475726174696f6e206d75737420626520706f73697469766500000000000000600082015250565b60006119c06019836116ce565b91506119cb8261198a565b602082019050919050565b600060208201905081810360008301526119ef816119b3565b9050919050565b7f5374617274696e67207072696365206d75737420626520706f73697469766500600082015250565b6000611a2c601f836116ce565b9150611a37826119f6565b602082019050919050565b60006020820190508181036000830152611a5b81611a1f565b9050919050565b7f52657365727665207072696365206d757374206265203e3d207374617274696e60008201527f6720707269636500000000000000000000000000000000000000000000000000602082015250565b6000611abe6027836116ce565b9150611ac982611a62565b604082019050919050565b60006020820190508181036000830152611aed81611ab1565b9050919050565b7f4e487b7100000000000000000000000000000000000000000000000000000000600052601160045260246000fd5b6000611b2e8261141e565b91507fffffffffffffffffffffffffffffffffffffffffffffffffffffffffffffffff8203611b6057611b5f611af4565b5b600182019050919050565b6000611b768261141e565b9150611b818361141e565b9250828201905080821115611b9957611b98611af4565b5b92915050565b7f4e487b7100000000000000000000000000000000000000000000000000000000600052602260045260246000fd5b60006002820490506001821680611be657607f821691505b602082108103611bf957611bf8611b9f565b5b50919050565b60008190508160005260206000209050919050565b60006020601f8301049050919050565b600082821b905092915050565b600060088302611c617fffffffffffffffffffffffffffffffffffffffffffffffffffffffffffffffff82611c24565b611c6b8683611c24565b95508019841693508086168417925050509392505050565b6000819050919050565b6000611ca8611ca3611c9e8461141e565b611c83565b61141e565b9050919050565b6000819050919050565b611cc283611c8d565b611cd6611cce82611caf565b848454611c31565b825550505050565b600090565b611ceb611cde565b611cf6818484611cb9565b505050565b5b81811015611d1a57611d0f600082611ce3565b600181019050611cfc565b5050565b601f821115611d5f57611d3081611bff565b611d3984611c14565b81016020851015611d48578190505b611d5c611d5485611c14565b830182611cfb565b50505b505050565b600082821c905092915050565b6000611d8260001984600802611d64565b1980831691505092915050565b6000611d9b8383611d71565b9150826002028217905092915050565b611db4826116c3565b67ffffffffffffffff811115611dcd57611dcc6114d9565b5b611dd78254611bce565b611de2828285611d1e565b600060209050601f831160018114611e155760008415611e03578287015190505b611e0d8582611d8f565b865550611e75565b601f198416611e2386611bff565b60005b82811015611e4b57848901518255600182019150602085019450602081019050611e26565b86831015611e685784890151611e64601f891682611d71565b8355505b6001600288020188555050505b505050505050565b6000606082019050611e926000830186611494565b611e9f60208301856116b4565b8181036040830152611eb18184611709565b9050949350505050565b7f41756374696f6e20646f6573206e6f7420657869737400000000000000000000600082015250565b6000611ef16016836116ce565b9150611efc82611ebb565b602082019050919050565b60006020820190508181036000830152611f2081611ee4565b9050919050565b7f41756374696f6e206e6f74206163746976650000000000000000000000000000600082015250565b6000611f5d6012836116ce565b9150611f6882611f27565b602082019050919050565b60006020820190508181036000830152611f8c81611f50565b9050919050565b7f41756374696f6e206e6f74207374617274656400000000000000000000000000600082015250565b6000611fc96013836116ce565b9150611fd482611f93565b602082019050919050565b60006020820190508181036000830152611ff881611fbc565b9050919050565b7f41756374696f6e20656e64656400000000000000000000000000000000000000600082015250565b6000612035600d836116ce565b915061204082611fff565b602082019050919050565b6000602082019050818103600083015261206481612028565b9050919050565b7f53656c6c65722063616e6e6f7420626964000000000000000000000000000000600082015250565b60006120a16011836116ce565b91506120ac8261206b565b602082019050919050565b600060208201905081810360008301526120d081612094565b9050919050565b7f42696420746f6f206c6f77000000000000000000000000000000000000000000600082015250565b600061210d600b836116ce565b9150612118826120d7565b602082019050919050565b6000602082019050818103600083015261213c81612100565b9050919050565b7f4269642062656c6f77207374617274696e672070726963650000000000000000600082015250565b60006121796018836116ce565b915061218482612143565b602082019050919050565b600060208201905081810360008301526121a88161216c565b9050919050565b60006060820190506121c46000830186611494565b6121d160208301856116b4565b6121de6040830184611494565b949350505050565b7f41756374696f6e20616c726561647920656e6465640000000000000000000000600082015250565b600061221c6015836116ce565b9150612227826121e6565b602082019050919050565b6000602082019050818103600083015261224b8161220f565b9050919050565b7f41756374696f6e207374696c6c20616374697665000000000000000000000000600082015250565b60006122886014836116ce565b915061229382612252565b602082019050919050565b600060208201905081810360008301526122b78161227b565b9050919050565b60006040820190506122d360008301856116b4565b6122e06020830184611494565b939250505056fea264697066735822122050e9f9ee81590b6f9d13cca078a1b0e710c89e4dad91b294fc96ee96d9c807ed64736f6c63430008110033",
  "linkReferences": {},
  "deployedLinkReferences": {}
}