{
  "_format": "hh-sol-artifact-1",
  "contractName": "Crowdfund",
  "sourceName": "contracts/Crowdfund.sol",
  "abi": [
    {
      "inputs": [],
      "name": "donate",
      "outputs": [],
      "stateMutability": "payable",
      "type": "function"
    },
    {
      "inputs": [
        {
          "internalType": "address payable",
          "name": "beneficiary",
          "type": "address"
        }
      ],
      "name": "endCampaign",
      "outputs": [
        {
          "internalType": "bool",
          "name": "",
          "type": "bool"
        }
      ],
      "stateMutability": "nonpayable",
      "type": "function"
    },
    {
      "inputs": [],
      "name": "getGoal",
      "outputs": [
        {
          "internalType": "uint256",
          "name": "",
          "type": "uint256"
        }
      ],
      "stateMutability": "view",
      "type": "function"
    },
    {
      "inputs": [],
      "name": "getSum",
      "outputs": [
        {
          "internalType": "uint256",
          "name": "",
          "type": "uint256"
        }
      ],
      "stateMutability": "view",
      "type": "function"
    }
  ],
  "bytecode": "0x6080604052600060015568056bc75e2d631000006002556001600360006101000a81548160ff02191690831515021790555034801561003d57600080fd5b506103e48061004d6000396000f3fe60806040526004361061003f5760003560e01c806342ec21fd14610044578063569c5f6d14610081578063b97a7d24146100ac578063ed88c68e146100d7575b600080fd5b34801561005057600080fd5b5061006b600480360381019061006691906102b4565b6100e1565b60405161007891906102fc565b60405180910390f35b34801561008d57600080fd5b5061009661016f565b6040516100a39190610330565b60405180910390f35b3480156100b857600080fd5b506100c1610179565b6040516100ce9190610330565b60405180910390f35b6100df610183565b005b6000600360009054906101000a900460ff166100fc57600080fd5b6000600360006101000a81548160ff0219169083151502179055508173ffffffffffffffffffffffffffffffffffffffff166108fc6001549081150290604051600060405180830381858888f1935050505015801561015f573d6000803e3d6000fd5b5060025460015410159050919050565b6000600154905090565b6000600254905090565b6000341180156101c05750600073ffffffffffffffffffffffffffffffffffffffff163373ffffffffffffffffffffffffffffffffffffffff1614155b80156101d85750600360009054906101000a900460ff165b6101e157600080fd5b34600160008282546101f3919061037a565b92505081905550346000803373ffffffffffffffffffffffffffffffffffffffff1673ffffffffffffffffffffffffffffffffffffffff1681526020019081526020016000206000828254610248919061037a565b92505081905550565b600080fd5b600073ffffffffffffffffffffffffffffffffffffffff82169050919050565b600061028182610256565b9050919050565b61029181610276565b811461029c57600080fd5b50565b6000813590506102ae81610288565b92915050565b6000602082840312156102ca576102c9610251565b5b60006102d88482850161029f565b91505092915050565b60008115159050919050565b6102f6816102e1565b82525050565b600060208201905061031160008301846102ed565b92915050565b6000819050919050565b61032a81610317565b82525050565b60006020820190506103456000830184610321565b92915050565b7f4e487b7100000000000000000000000000000000000000000000000000000000600052601160045260246000fd5b600061038582610317565b915061039083610317565b92508282019050808211156103a8576103a761034b565b5b9291505056fea264697066735822122024b76623e80d4cf6bdc802b0bae9b32be91bf717970c104bf7b942f1d9baae0c64736f6c63430008110033",
  "linkReferences": {},
  "deployedLinkReferences": {}
}